:09054E00120B2D755900755A05B8
:100557007524101203CB8F24E52414B40A0050F03D
:1005670090057575F003A4C58325F0C5837302054F
:10057700930205980205A50205570205AA0205E799
:1005870002055702055702062C020672120AE2807C
:10059700BF7F007E007D007C3F1206B780B212014C
:1005A700E880AD752B00752C01AB5AAA5974FFFD75
:1005B700FC7F017E001207CD1203CBEF640760902A
:1005C7001203CBEF640660881203CBEF64096080E7
:1005D7001203CBEF640A7003020557120A1B80C38C
:1005E700752B00752C01AB5AAA5974FFFDFCE4FF6B
:1005F700FE1207CD1203CBEF6407700302055712F3
:1006070003CBEF640570030205571203CBEF6409B0
:1006170070030205571203CBEF640A7003020557F4
:10062700120A1B80BB752B00752C01AB5AAA597D8A
:10063700017C0074FFFFFE1207CD1203CBEF6407A6
:1006470070030205571203CBEF64067003020557C8
:100657001203CBEF640570030205571203CBEF6457
:100667000A7003020557120A1B80BA752B00752CF6
:1006770001AB5AAA59E4FDFC74FFFFFE1207CD1225
:1006870003CBEF640770030205571203CBEF640631
:1006970070030205571203CBEF6409700302055775
:1006A7001203CBEF64057003020557120A1B80BBC8
:0C0B1000023B0000023D0001023F1940C2
:100AE20075254E7526207B017A00E4FDFCFFFE127F
:100AF200087F7B017A00E4FDFC7F01FE12087FE59E
:0D0B020026152670021525E526452570D91B
:010B0F0022C3
:1007CD008E258F268C278D288A298B2AE52C452B63
:1007DD007005F52B752CC8E526B4FF48E525B4FF4B
:1007ED00437541007542C8852B45852C46D3E5469A
:1007FD009400E54594004019AB2AAA29AD28AC27F1
:10080D00AF3EAE3D12087FE546154670E0154580BA
:10081D00DCE542154270021541D3E5429400E541F5
:10082D00940050C3E528B4FF48E527B4FF43754154
:10083D00007542C8852B43852C44D3E5449400E5CF
:10084D004394004019AB2AAA29AD26AC25AF3CAE86
:10085D003B12087FE544154470E0154380DCE5420A
:10086D00154270021541D3E5429400E541940050C4
:02087D00C32294
:100A1B001203CBBF0D15D3E55A9401E559648094AD
:100A2B00804008E55A155A700215591203CBBF0EB8
:100A3B0015C3E55A940AE559648094805008055A09
:070A4B00E55A700205592273
:03000000020915DD
:0C091500787FE4F6D8FD75815A02095C79
:0C0B1C00024D0007024B000202510032A3
:100A5200854D49854E4AD3EF9400EE6480948040E0
:100A62001ED3E54A9400E54964809480400AE54A31
:100A7200154A70ED154980E9EF1F70DA1E80D72202
:100A8200854B49854C4AD3EF9400EE6480948040B4
:100A92001ED3E54A9400E54964809480400AE54A01
:100AA200154A70ED154980E9EF1F70DA1E80D722D2
:100AB20085514985524AD3EF9400EE648094804078
:100AC2001ED3E54A9400E54964809480400AE54AD1
:100AD200154A70ED154980E9EF1F70DA1E80D722A2
:040B2800025700640C
:070B2D00907FFF7481F022AC
:10087F008E358F368C378D388A398B3AE536640151
:10088F0045357019E53845377013907FFC04F0AF8C
:10089F003AAE39120A52907FFC74038060E53664D9
:1008AF00014535701AE538640145377012907FFCA9
:1008BF00F0AF3AAE39120A52907FFC7402803EE5D7
:1008CF00364535701AE53845377014907FFC74043F
:1008DF00F0AF3AAE39120A52907FFC740C801EE5CD
:1008EF003645357020E538640145377018907FFC28
:1008FF00F0AF3AAE39120A52907FFC7408F0AF3A5B
:06090F00AE39120A52226B
:1009A1008E318F328C338D34855753855854D3E52E
:1009B100549400E5536480948040217B0A7A00AD11
:1009C10034AC33AF32AE3112087FE55415547002A6
:0D09D1001553E554155470D6155380D222ED
:1009DE008E318F328C338D34855755855856D3E5ED
:1009EE00569400E5556480948040217B047A00ADD6
:1009FE0034AC33AF32AE3112087FE5561556700265
:0D0A0E001555E556155670D6155580D222A7
:1006B7008F288E278D268C257510007511C8751209
:1006C700007513C87D017C00E4FFFE1209DEE51109
:1006D700151170021510D3E5119400E5106480948C
:1006E7008050E1D3E5139400E512648094804015AF
:1006F7007D017C007F017E001209DEE51315137072
:10070700E2151280DE7518017519F4E4F50AF50B88
:10071700F508F509850A22850B2385082085092117
:1007270085081A85091BAC1AAD1BEC12010EAB2804
:10073700AA27A926A8251200031201478E1C8F1D80
:10074700C3E51D950FFDE51C950EFCC3E521950D31
:10075700FFE520950CFE1201C8AA06AB07C3E51BEF
:10076700950DFDE51A950CFCC3E523950FFFE522D2
:10077700950EFE1201C8C3EF9BF51FEE9AF51EC337
:100787006480948050137D017C007F017E001209F4
:10079700A1050BE50B7002050AC3E51E6480948072
:1007A70040127D017C00E4FFFE1209A10509E5095D
:1007B70070020508E519151970021518E51945188D
:0607C700600302071B2283
:1001E8007514017515F475160175172C7D017C00C1
:1001F800E4FFFE1209DEE515151570021514D3E5A6
:10020800159400E5146480948050E1D3E5179400B8
:10021800E5166480948040157D017C007F017E0096
:100228001209DEE517151770E2151680DEE4F52BC6
:10023800F52CF5277528C8F52FF530C3E52F648010
:10024800948050030202EEE52B64809480404BE5D5
:100258002764809480E4FDFC401AFFFE1209A1E5A2
:100268002824FFF526E52734FFF525E52825E0FFB6
:10027800E52780197F01FE1209A1E52C24FFF52A44
:10028800E52B34FFF529E52C25E0FFE52B33FEC3EC
:10029800E5309FCFE52F9E0203A4C3E52764809431
:1002A800807D017C00401B7F017E001209A1E52CA6
:1002B8002401F52AE4352BF529E52C25E0FFE52B6B
:1002C8008018E4FFFE1209A1E5282401F526E4358B
:1002D80027F525E52825E0FFE52733FEE5302FCF74
:1002E800E52F3E0203A4C3E52B648094804057E5C4
:1002F800276480948040287D017C007F017E001265
:1003080009A1E52C2401F52AE4352BF529E52C254E
:10031800E0FFE52B33FEE5302FCFE52F3E8025E4C7
:10032800FDFCFFFE1209A1E52824FFF526E5273488
:10033800FFF525E52825E0FFE52733FEC3E5309FD7
:10034800CFE52F9E8056C3E5276480948040277DA3
:10035800017C00E4FFFE1209A1E5282401F526E44A
:100368003527F525E52825E0FFE52733FEE5302F7D
:10037800CFE52F3E8026E4FDFC7F01FE1209A1E5B2
:100388002C24FFF52AE52B34FFF529E52C25E0FF81
:10039800E52B33FEC3E5309FCFE52F9ECF2401F533
:1003A8002EE43FF52D85252785262885292B852AA6
:1003B8002C852D2F852E30E52864C845276003023B
:0203C8000243EE
:0103CA002210
:1003CB00907FFE747FF0E0F52653260FE526640F31
:1003DB00604E7F057E00120AB2907FFEE0F5265339
:1003EB00260FE526640F60E4907FFEE0F526248956
:1003FB00601A24FC601124FE6008147012E4F525C9
:10040B00800D7525048008752508800375250CE57E
:10041B0026640F60CD907FFEE0F52653260F80EF0C
:10042B00907FFE74BFF0E0F52653260FE526640F90
:10043B00604E7F057E00120AB2907FFEE0F52653D8
:10044B00260FE526640F60E4907FFEE0F526244935
:10045B00601A24FC601124FE6008147012752501CB
:10046B00800D7525058008752509800375250DE51B
:10047B0026640F60CD907FFEE0F52653260F80EFAC
:10048B00907FFE74DFF0E0F52653260FE526640F10
:10049B00604E7F057E00120AB2907FFEE0F5265378
:1004AB00260FE526640F60E4907FFEE0F5262429F5
:1004BB00601A24FC601124FE60081470127525026A
:1004CB00800D752506800875250A800375250EE5B8
:1004DB0026640F60CD907FFEE0F52653260F80EF4C
:1004EB00907FFE74EFF0E0F52653260FE526640FA0
:1004FB00604E7F057E00120AB2907FFEE0F5265318
:10050B00260FE526640F60E4907FFEE0F5262419A4
:10051B00601A24FC601124FE600814701275250308
:10052B00800D752507800875250B800375250FE554
:10053B0026640F60CD907FFEE0F52653260F80EFEB
:02054B00AF25DA
:01054D00228B
:10000300EC4D6011E8497017ED33EC3304600DE4F7
:10001300FCFFFEFD22E933E8330470F80201B3125A
:10002300017E58046009E4CC24815006285009025B
:1000330001BD2840030201BAC0E0EB4A7044B98015
:1000430006D0E0FB0201A9EF4E701CBD8008EBFF58
:10005300EAFEE9FD80EBE98DF0A4FEE5F00200EC99
:10006300E9CDF9EAFEEBFFEF89F0A4FCE5F0CE89D8
:10007300F0A42EFFE435F0CD89F0A42DFEE435F095
:100083008067EF4E7005BD80D780C3EF8BF0A4ACC3
:10009300F0EE8BF0A42CFCE435F0F8EF8AF0A42CFE
:1000A300E5F038FCE433CB8DF0A42CFCE5F03BF811
:1000B300EE8AF0A42CFCE5F038F8E433CF89F0A401
:1000C3002CFCE5F038CF3400CE89F0A42FFFE5F007
:1000D3003EFEE433C98DF0A42EFEE5F039CD8AF05F
:1000E300A42FFFE5F03EFEE43DFD33D0E0FB5007D7
:1000F3000BBB000F0201BDEC2CFCEF33FFEE33FE14
:06010300ED33FD02019541
:1001090075F020800E75F010800575F0087D007E71
:10011900007F003392D530D5031201DAEC33401059
:10012900EF33FFEE33FEED33FDEC33FCD5F0ED227A
:0E013900E5F0247EA2D513CC92E7CDCEFF22B6
:10014700EDD2E7CD33EC3392D524814006E4FFFEB0
:10015700FDFC22FCE4CFCECDCC24E0501174FF800F
:10016700EDC3CC13CCCD13CDCE13CECF13CF0470AC
:07017700F030D5DE0201DAD1
:10017E00E9D2E7C933E833F892D5EDD2E7CD33ECC7
:07018E0033FC5002B2D52240
:10019500EC30E7100FBF000C0EBE00080DBD0004CB
:1001A5000BEB6014A2D5EB13FCED92E7FD2274FF77
:1001B500FCFDFEFF22E480F8A2D574FF13FC7D80D0
:0301C500E480EFE4
:1009210002054EE493A3F8E493A34003F68001F299
:1009310008DFF48029E493A3F85407240CC8C333D7
:10094100C4540F4420C8834004F456800146F6DFA6
:10095100E4800B0102040810204080900B10E47E1B
:10096100019360BCA3FF543F30E509541FFEE4939B
:10097100A360010ECF54C025E060A840B8E493A362
:10098100FAE493A3F8E493A3C8C582C8CAC583CA8D
:10099100F0A3C8C582C8CAC583CADFE9DEE780BE45
:010B2C0000C8
:1001C800EF8DF0A4A8F0CF8CF0A428CE8DF0A42E4B
:0201D800FE2205
:0E01DA00C3E49FFFE49EFEE49DFDE49CFC2236
:00000001FF
